{
  "abi": [
    {
      "type": "fallback",
      "stateMutability": "nonpayable"
    },
    {
      "type": "function",
      "name": "accountId",
      "inputs": [],
      "outputs": [
        {
          "name": "",
          "type": "string",
          "internalType": "string"
        }
      ],
      "stateMutability": "view"
    },
    {
      "type": "function",
      "name": "entryPoint",
      "inputs": [],
      "outputs": [
        {
          "name": "",
          "type": "address",
          "internalType": "address"
        }
      ],
      "stateMutability": "view"
    },
    {
      "type": "function",
      "name": "execute",
      "inputs": [
        {
          "name": "mode",
          "type": "bytes32",
          "internalType": "ModeCode"
        },
        {
          "name": "executionCalldata",
          "type": "bytes",
          "internalType": "bytes"
        }
      ],
      "outputs": [],
      "stateMutability": "payable"
    },
    {
      "type": "function",
      "name": "executeFromExecutor",
      "inputs": [
        {
          "name": "mode",
          "type": "bytes32",
          "internalType": "ModeCode"
        },
        {
          "name": "executionCalldata",
          "type": "bytes",
          "internalType": "bytes"
        }
      ],
      "outputs": [],
      "stateMutability": "payable"
    },
    {
      "type": "function",
      "name": "executeUserOp",
      "inputs": [
        {
          "name": "userOp",
          "type": "tuple",
          "internalType": "struct PackedUserOperation",
          "components": [
            {
              "name": "sender",
              "type": "address",
              "internalType": "address"
            },
            {
              "name": "nonce",
              "type": "uint256",
              "internalType": "uint256"
            },
            {
              "name": "initCode",
              "type": "bytes",
              "internalType": "bytes"
            },
            {
              "name": "callData",
              "type": "bytes",
              "internalType": "bytes"
            },
            {
              "name": "accountGasLimits",
              "type": "bytes32",
              "internalType": "bytes32"
            },
            {
              "name": "preVerificationGas",
              "type": "uint256",
              "internalType": "uint256"
            },
            {
              "name": "maxFeePerGas",
              "type": "uint256",
              "internalType": "uint256"
            },
            {
              "name": "maxPriorityFeePerGas",
              "type": "uint256",
              "internalType": "uint256"
            },
            {
              "name": "paymasterAndData",
              "type": "bytes",
              "internalType": "bytes"
            },
            {
              "name": "signature",
              "type": "bytes",
              "internalType": "bytes"
            }
          ]
        }
      ],
      "outputs": [],
      "stateMutability": "payable"
    },
    {
      "type": "function",
      "name": "getExecutorsPaginated",
      "inputs": [
        {
          "name": "cursor",
          "type": "address",
          "internalType": "address"
        },
        {
          "name": "size",
          "type": "uint256",
          "internalType": "uint256"
        }
      ],
      "outputs": [
        {
          "name": "array",
          "type": "address[]",
          "internalType": "address[]"
        },
        {
          "name": "next",
          "type": "address",
          "internalType": "address"
        }
      ],
      "stateMutability": "view"
    },
    {
      "type": "function",
      "name": "getValidatorPaginated",
      "inputs": [
        {
          "name": "cursor",
          "type": "address",
          "internalType": "address"
        },
        {
          "name": "size",
          "type": "uint256",
          "internalType": "uint256"
        }
      ],
      "outputs": [
        {
          "name": "array",
          "type": "address[]",
          "internalType": "address[]"
        },
        {
          "name": "next",
          "type": "address",
          "internalType": "address"
        }
      ],
      "stateMutability": "view"
    },
    {
      "type": "function",
      "name": "initializeAccount",
      "inputs": [
        {
          "name": "data",
          "type": "bytes",
          "internalType": "bytes"
        }
      ],
      "outputs": [],
      "stateMutability": "payable"
    },
    {
      "type": "function",
      "name": "installModule",
      "inputs": [
        {
          "name": "moduleType",
          "type": "uint256",
          "internalType": "uint256"
        },
        {
          "name": "module",
          "type": "address",
          "internalType": "address"
        },
        {
          "name": "initData",
          "type": "bytes",
          "internalType": "bytes"
        }
      ],
      "outputs": [],
      "stateMutability": "payable"
    },
    {
      "type": "function",
      "name": "isModuleInstalled",
      "inputs": [
        {
          "name": "moduleType",
          "type": "uint256",
          "internalType": "uint256"
        },
        {
          "name": "module",
          "type": "address",
          "internalType": "address"
        },
        {
          "name": "additionalContext",
          "type": "bytes",
          "internalType": "bytes"
        }
      ],
      "outputs": [
        {
          "name": "",
          "type": "bool",
          "internalType": "bool"
        }
      ],
      "stateMutability": "view"
    },
    {
      "type": "function",
      "name": "supportsAccountMode",
      "inputs": [
        {
          "name": "mode",
          "type": "bytes32",
          "internalType": "ModeCode"
        }
      ],
      "outputs": [
        {
          "name": "isSupported",
          "type": "bool",
          "internalType": "bool"
        }
      ],
      "stateMutability": "view"
    },
    {
      "type": "function",
      "name": "supportsModule",
      "inputs": [
        {
          "name": "modulTypeId",
          "type": "uint256",
          "internalType": "uint256"
        }
      ],
      "outputs": [
        {
          "name": "",
          "type": "bool",
          "internalType": "bool"
        }
      ],
      "stateMutability": "view"
    },
    {
      "type": "function",
      "name": "uninstallModule",
      "inputs": [
        {
          "name": "moduleType",
          "type": "uint256",
          "internalType": "uint256"
        },
        {
          "name": "module",
          "type": "address",
          "internalType": "address"
        },
        {
          "name": "deInitData",
          "type": "bytes",
          "internalType": "bytes"
        }
      ],
      "outputs": [],
      "stateMutability": "payable"
    },
    {
      "type": "function",
      "name": "validateUserOp",
      "inputs": [
        {
          "name": "userOp",
          "type": "tuple",
          "internalType": "struct PackedUserOperation",
          "components": [
            {
              "name": "sender",
              "type": "address",
              "internalType": "address"
            },
            {
              "name": "nonce",
              "type": "uint256",
              "internalType": "uint256"
            },
            {
              "name": "initCode",
              "type": "bytes",
              "internalType": "bytes"
            },
            {
              "name": "callData",
              "type": "bytes",
              "internalType": "bytes"
            },
            {
              "name": "accountGasLimits",
              "type": "bytes32",
              "internalType": "bytes32"
            },
            {
              "name": "preVerificationGas",
              "type": "uint256",
              "internalType": "uint256"
            },
            {
              "name": "maxFeePerGas",
              "type": "uint256",
              "internalType": "uint256"
            },
            {
              "name": "maxPriorityFeePerGas",
              "type": "uint256",
              "internalType": "uint256"
            },
            {
              "name": "paymasterAndData",
              "type": "bytes",
              "internalType": "bytes"
            },
            {
              "name": "signature",
              "type": "bytes",
              "internalType": "bytes"
            }
          ]
        },
        {
          "name": "userOpHash",
          "type": "bytes32",
          "internalType": "bytes32"
        },
        {
          "name": "missingAccountFunds",
          "type": "uint256",
          "internalType": "uint256"
        }
      ],
      "outputs": [
        {
          "name": "validSignature",
          "type": "uint256",
          "internalType": "uint256"
        }
      ],
      "stateMutability": "payable"
    },
    {
      "type": "event",
      "name": "ModuleInstalled",
      "inputs": [
        {
          "name": "moduleTypeId",
          "type": "uint256",
          "indexed": false,
          "internalType": "uint256"
        },
        {
          "name": "module",
          "type": "address",
          "indexed": false,
          "internalType": "address"
        }
      ],
      "anonymous": false
    },
    {
      "type": "event",
      "name": "ModuleUninstalled",
      "inputs": [
        {
          "name": "moduleTypeId",
          "type": "uint256",
          "indexed": false,
          "internalType": "uint256"
        },
        {
          "name": "module",
          "type": "address",
          "indexed": false,
          "internalType": "address"
        }
      ],
      "anonymous": false
    },
    {
      "type": "event",
      "name": "TryExecuteUnsuccessful",
      "inputs": [
        {
          "name": "batchExecutionindex",
          "type": "uint256",
          "indexed": false,
          "internalType": "uint256"
        },
        {
          "name": "result",
          "type": "bytes",
          "indexed": false,
          "internalType": "bytes"
        }
      ],
      "anonymous": false
    },
    {
      "type": "error",
      "name": "AccountAccessUnauthorized",
      "inputs": []
    },
    {
      "type": "error",
      "name": "AccountInitializationFailed",
      "inputs": []
    },
    {
      "type": "error",
      "name": "CannotRemoveLastValidator",
      "inputs": []
    },
    {
      "type": "error",
      "name": "ExecutionFailed",
      "inputs": []
    },
    {
      "type": "error",
      "name": "HookAlreadyInstalled",
      "inputs": [
        {
          "name": "currentHook",
          "type": "address",
          "internalType": "address"
        }
      ]
    },
    {
      "type": "error",
      "name": "HookPostCheckFailed",
      "inputs": []
    },
    {
      "type": "error",
      "name": "InvalidModule",
      "inputs": [
        {
          "name": "module",
          "type": "address",
          "internalType": "address"
        }
      ]
    },
    {
      "type": "error",
      "name": "LinkedList_AlreadyInitialized",
      "inputs": []
    },
    {
      "type": "error",
      "name": "LinkedList_EntryAlreadyInList",
      "inputs": [
        {
          "name": "entry",
          "type": "address",
          "internalType": "address"
        }
      ]
    },
    {
      "type": "error",
      "name": "LinkedList_InvalidEntry",
      "inputs": [
        {
          "name": "entry",
          "type": "address",
          "internalType": "address"
        }
      ]
    },
    {
      "type": "error",
      "name": "LinkedList_InvalidPage",
      "inputs": []
    },
    {
      "type": "error",
      "name": "UnsupportedCallType",
      "inputs": [
        {
          "name": "callType",
          "type": "bytes1",
          "internalType": "CallType"
        }
      ]
    },
    {
      "type": "error",
      "name": "UnsupportedExecType",
      "inputs": [
        {
          "name": "execType",
          "type": "bytes1",
          "internalType": "ExecType"
        }
      ]
    },
    {
      "type": "error",
      "name": "UnsupportedModuleType",
      "inputs": [
        {
          "name": "moduleType",
          "type": "uint256",
          "internalType": "uint256"
        }
      ]
    }
  ],
  "bytecode": {
    "object": "0x608060405234801561001057600080fd5b5061231d806100206000396000f3fe6080604052600436106100dd5760003560e01c8063a71763a81161007f578063e9ae5c5311610059578063e9ae5c53146102ca578063ea5f61d0146102dd578063f2dc691d146102fd578063f603aba51461031d576100dd565b8063a71763a814610275578063b0d691fe14610288578063d691c964146102b7576100dd565b806385571368116100bb57806385571368146101c75780638803e451146101f55780639517e29f146102165780639cfd7cff14610229576100dd565b8063112d3a7d1461015d5780634b6a1419146101925780634f55535c146101a7575b3480156100e957600080fd5b50600080516020612268833981519152546001600160a01b03168061010d57600080fd5b60408051368101909152366000823760408051601481019091523360601b9052600080366014018382865af1905061014b3d60408051918201905290565b3d6000823e81610159573d81fd5b3d81f35b34801561016957600080fd5b5061017d610178366004611ae7565b610330565b60405190151581526020015b60405180910390f35b6101a56101a0366004611b42565b6103a3565b005b3480156101b357600080fd5b5061017d6101c2366004611b83565b61042d565b3480156101d357600080fd5b506101e76101e2366004611b9c565b6104ac565b604051610189929190611bc8565b610208610203366004611c44565b6104d7565b604051908152602001610189565b6101a5610224366004611ae7565b61058d565b34801561023557600080fd5b50604080518082018252601b81527f754d53412e616476616e6365642f77697468486f6f6b2e76302e310000000000602082015290516101899190611ce1565b6101a5610283366004611ae7565b610643565b34801561029457600080fd5b50604051735ff137d4b0fdcd49dca30c7cf57e578a026d27898152602001610189565b6101a56102c5366004611cf4565b6106cd565b6101a56102d8366004611cf4565b610a7d565b3480156102e957600080fd5b506101e76102f8366004611b9c565b610db4565b34801561030957600080fd5b5061017d610318366004611b83565b610dd2565b6101a561032b366004611d3f565b610e21565b60006001850361034a5761034384610eff565b905061039b565b6002850361035b5761034384610f21565b6003850361038657600080516020612268833981519152546001600160a01b03808616911614610343565b600485036103975761034384610f3c565b5060005b949350505050565b6103ab610f6e565b6000806103ba83850185611de0565b915091506000826001600160a01b0316826040516103d89190611e72565b600060405180830381855af49150503d8060008114610413576040519150601f19603f3d011682016040523d82523d6000602084013e610418565b606091505b505090508061042657600080fd5b5050505050565b600081600881901b61044382600160f81b610fa0565b156104515760019250610474565b61045c826000610fa0565b1561046a5760019250610474565b5060009392505050565b61047f816000610fa0565b1561048d57600192506104a5565b61049b81600160f81b610fa0565b1561046a57600192505b5050919050565b606060006000805160206122c88339815191526104ca818686610fb7565b92509250505b9250929050565b6000816020850135606081901c906104ee82610eff565b6104fd57600193505050610573565b60405163dbfd2f7360e01b81526001600160a01b0383169063dbfd2f739061052b908a908a90600401611efc565b6020604051808303816000875af115801561054a573d6000803e3d6000fd5b505050506040513d601f19601f8201168201806040525081019061056e9190612008565b935050505b80156105855760003860003884335af1505b509392505050565b33735ff137d4b0fdcd49dca30c7cf57e578a026d278914806105ae57503330145b6105cb57604051635629665f60e11b815260040160405180910390fd5b600184036105e3576105de838383611153565b61063d565b600284036105f6576105de8383836111d6565b60038403610609576105de838383611214565b6004840361061c576105de8383836112bc565b60405163041c38b360e41b8152600481018590526024015b60405180910390fd5b50505050565b33735ff137d4b0fdcd49dca30c7cf57e578a026d2789148061066457503330145b61068157604051635629665f60e11b815260040160405180910390fd5b60018403610694576105de83838361137f565b600284036106a7576105de83838361137f565b600384036106ba576105de83838361140e565b6004840361061c576105de8383836114d9565b6000805160206122888339815191526106e68133611555565b61070557604051635c93ff2f60e11b8152336004820152602401610634565b600061071d6000805160206122a88339815191525490565b90506001600160a01b03811661088b5784600881901b61074182600160f81b610fa0565b156107be57600486810135870160248101910135610760836000610fa0565b156107755761076f828261158f565b506107b7565b61078383600160f81b610fa0565b156107925761076f8282611667565b6040516308c3ee0360e11b81526001600160f81b031984166004820152602401610634565b5050610884565b6107c9826000610fa0565b1561085f576000803660006107de8a8a611794565b93509350935093506107f485600060f81b610fa0565b1561080b576108058484848461180b565b50610856565b61081985600160f81b610fa0565b156108315761082a84848484611841565b5050610856565b6040516308c3ee0360e11b81526001600160f81b031986166004820152602401610634565b50505050610884565b604051632e5bf3f960e21b81526001600160f81b031983166004820152602401610634565b5050610426565b604051631057c74d60e11b81526000906001600160a01b038316906320af8e9a906108be90339085903690600401612021565b6000604051808303816000875af11580156108dd573d6000803e3d6000fd5b505050506040513d6000823e601f3d908101601f19168201604052610905919081019061204f565b905085600881901b61091b82600160f81b610fa0565b156109735760048781013588016024810191013561093a836000610fa0565b1561094f57610949828261158f565b5061096c565b61095d83600160f81b610fa0565b15610792576109498282611667565b50506109e7565b61097e826000610fa0565b1561085f576000803660006109938b8b611794565b93509350935093506109a985600060f81b610fa0565b156109c0576109ba8484848461180b565b506109e2565b6109ce85600160f81b610fa0565b15610831576109df84848484611841565b50505b505050505b5050604051630b9dfbed60e11b81526001600160a01b0383169063173bf7da90610a15908490600401611ce1565b6020604051808303816000875af1158015610a34573d6000803e3d6000fd5b505050506040513d601f19601f82011682018060405250810190610a5891906120bc565b610a755760405163546b3e6360e01b815260040160405180910390fd5b505050505050565b33735ff137d4b0fdcd49dca30c7cf57e578a026d27891480610a9e57503330145b610abb57604051635629665f60e11b815260040160405180910390fd5b6000610ad36000805160206122a88339815191525490565b90506001600160a01b038116610bca5783600881901b610af782600160f81b610fa0565b15610b4f57600485810135860160248101910135610b16836000610fa0565b15610b2b57610b25828261158f565b50610b48565b610b3983600160f81b610fa0565b1561079257610b258282611667565b5050610bc3565b610b5a826000610fa0565b1561085f57600080366000610b6f8989611794565b9350935093509350610b8585600060f81b610fa0565b15610b9c57610b968484848461180b565b50610bbe565b610baa85600160f81b610fa0565b1561083157610bbb84848484611841565b50505b505050505b505061063d565b604051631057c74d60e11b81526000906001600160a01b038316906320af8e9a90610bfd90339085903690600401612021565b6000604051808303816000875af1158015610c1c573d6000803e3d6000fd5b505050506040513d6000823e601f3d908101601f19168201604052610c44919081019061204f565b905084600881901b610c5a82600160f81b610fa0565b15610cb257600486810135870160248101910135610c79836000610fa0565b15610c8e57610c88828261158f565b50610cab565b610c9c83600160f81b610fa0565b1561079257610c888282611667565b5050610d26565b610cbd826000610fa0565b1561085f57600080366000610cd28a8a611794565b9350935093509350610ce885600060f81b610fa0565b15610cff57610cf98484848461180b565b50610d21565b610d0d85600160f81b610fa0565b1561083157610d1e84848484611841565b50505b505050505b5050604051630b9dfbed60e11b81526001600160a01b0383169063173bf7da90610d54908490600401611ce1565b6020604051808303816000875af1158015610d73573d6000803e3d6000fd5b505050506040513d601f19601f82011682018060405250810190610d9791906120bc565b6104265760405163546b3e6360e01b815260040160405180910390fd5b606060006000805160206122888339815191526104ca818686610fb7565b600060018203610de457506001919050565b60028203610df457506001919050565b60038203610e0457506001919050565b60048203610e1457506001919050565b506000919050565b919050565b33735ff137d4b0fdcd49dca30c7cf57e578a026d27891480610e4257503330145b610e5f57604051635629665f60e11b815260040160405180910390fd5b366000610e6f60608401846120de565b610e7d916004908290612124565b915091506000306001600160a01b03168383604051610e9d92919061214e565b600060405180830381855af49150503d8060008114610ed8576040519150601f19603f3d011682016040523d82523d6000602084013e610edd565b606091505b505090508061063d57604051632b3f6d1160e21b815260040160405180910390fd5b60006000805160206122c8833981519152610f1a8184611555565b9392505050565b6000600080516020612288833981519152610f1a8184611555565b6000816001600160a01b0316610f5e6000805160206122a88339815191525490565b6001600160a01b03161492915050565b6000805160206122c8833981519152610f9460008051602061228883398151915261187e565b610f9d8161187e565b50565b6001600160f81b0319828116908216145b92915050565b606060006001600160a01b038416600114801590610fda5750610fda8585611555565b1561100357604051637c84ecfb60e01b81526001600160a01b0385166004820152602401610634565b826000036110245760405163f725081760e01b815260040160405180910390fd5b826001600160401b0381111561103c5761103c611d73565b604051908082528060200260200182016040528015611065578160200160208202803683370190505b506001600160a01b03808616600090815260208890526040812054929450911691505b6001600160a01b038216158015906110aa57506001600160a01b038216600114155b80156110b557508381105b1561110f57818382815181106110cd576110cd61215e565b6001600160a01b0392831660209182029290920181019190915292811660009081529287905260409092205490911690806111078161218a565b915050611088565b6001600160a01b038216600114611147578261112c6001836121a3565b8151811061113c5761113c61215e565b602002602001015191505b80835250935093915050565b6040516306d61fe760e41b81526000805160206122c8833981519152906001600160a01b03851690636d61fe709061119190869086906004016121b6565b600060405180830381600087803b1580156111ab57600080fd5b505af11580156111bf573d6000803e3d6000fd5b5050505061063d84826118db90919063ffffffff16565b6040516306d61fe760e41b8152600080516020612288833981519152906001600160a01b03851690636d61fe709061119190869086906004016121b6565b600080516020612268833981519152546001600160a01b03161561123757600080fd5b60008051602061226883398151915280546001600160a01b0319166001600160a01b0385169081179091556040516306d61fe760e41b8152636d61fe709061128590859085906004016121b6565b600060405180830381600087803b15801561129f57600080fd5b505af11580156112b3573d6000803e3d6000fd5b50505050505050565b60006112d46000805160206122a88339815191525490565b90506001600160a01b038116156113095760405163741cbe0360e01b81526001600160a01b0382166004820152602401610634565b6040516306d61fe760e41b81526001600160a01b03851690636d61fe709061133790869086906004016121b6565b600060405180830381600087803b15801561135157600080fd5b505af1158015611365573d6000803e3d6000fd5b5050505061063d846000805160206122a883398151915255565b60008051602061228883398151915260008061139d85850186611de0565b604051638a91b0e360e01b815291935091506001600160a01b03871690638a91b0e3906113ce908490600401611ce1565b600060405180830381600087803b1580156113e857600080fd5b505af11580156113fc573d6000803e3d6000fd5b50610a759250859150849050886119b1565b600080516020612268833981519152546001600160a01b03908116908416811461145657604051635c93ff2f60e11b81526001600160a01b0385166004820152602401610634565b60008051602061226883398151915280546001600160a01b0319169055604051638a91b0e360e01b81526001600160a01b03821690638a91b0e3906114a190869086906004016121b6565b600060405180830381600087803b1580156114bb57600080fd5b505af11580156114cf573d6000803e3d6000fd5b5050505050505050565b604051638a91b0e360e01b81526001600160a01b03841690638a91b0e39061150790859085906004016121b6565b600060405180830381600087803b15801561152157600080fd5b505af1158015611535573d6000803e3d6000fd5b5050505061155060006000805160206122a883398151915255565b505050565b600060016001600160a01b03831614801590610f1a5750506001600160a01b03908116600090815260209290925260409091205416151590565b606081806001600160401b038111156115aa576115aa611d73565b6040519080825280602002602001820160405280156115dd57816020015b60608152602001906001900390816115c85790505b50915060005b8181101561165f57368585838181106115fe576115fe61215e565b905060200281019061161091906121ca565b905061163961162260208301836121e0565b602083013561163460408501856120de565b61180b565b84838151811061164b5761164b61215e565b6020908102919091010152506001016115e3565b505092915050565b606081806001600160401b0381111561168257611682611d73565b6040519080825280602002602001820160405280156116b557816020015b60608152602001906001900390816116a05790505b50915060005b8181101561165f57368585838181106116d6576116d661215e565b90506020028101906116e891906121ca565b905060006117136116fc60208401846121e0565b602084013561170e60408601866120de565b611841565b8685815181106117255761172561215e565b602090810291909101015290508061178a577fe723f28f104e46b47fd3531f3608374ac226bcf3ddda334a23a266453e0efdb78386858151811061176b5761176b61215e565b60200260200101516040516117819291906121fd565b60405180910390a15b50506001016116bb565b600080368181816117a8876004818b612124565b90925090506117bb6020600c8385612124565b6117c491612216565b60601c95506117d7604060208385612124565b6117e091612249565b9450816080826117f160208b6121a3565b926117fe93929190612124565b9699959850965050505050565b60405181838237600038838387895af1611828573d6000823e3d81fd5b3d8152602081013d6000823e3d01604052949350505050565b604051600090828482376000388483888a5af1611862573d6000823e806000f35b3d8152602081013d6000823e3d81016040525094509492505050565b60016000908152602082905260409020546001600160a01b0316156118b6576040516329e42f3360e11b815260040160405180910390fd5b60016000818152602092909252604090912080546001600160a01b0319169091179055565b6001600160a01b03811615806118fa57506001600160a01b0381166001145b1561192357604051637c84ecfb60e01b81526001600160a01b0382166004820152602401610634565b6001600160a01b03818116600090815260208490526040902054161561196757604051631034f46960e21b81526001600160a01b0382166004820152602401610634565b60016000818152602093909352604080842080546001600160a01b039485168087529286208054959091166001600160a01b03199586161790559190935280549091169091179055565b6001600160a01b03811615806119d057506001600160a01b0381166001145b156119f957604051637c84ecfb60e01b81526001600160a01b0383166004820152602401610634565b6001600160a01b03828116600090815260208590526040902054811690821614611a4157604051637c84ecfb60e01b81526001600160a01b0382166004820152602401610634565b6001600160a01b0390811660008181526020949094526040808520805494841686529085208054949093166001600160a01b0319948516179092559092528154169055565b6001600160a01b0381168114610f9d57600080fd5b8035610e1c81611a86565b60008083601f840112611ab857600080fd5b5081356001600160401b03811115611acf57600080fd5b6020830191508360208285010111156104d057600080fd5b60008060008060608587031215611afd57600080fd5b843593506020850135611b0f81611a86565b925060408501356001600160401b03811115611b2a57600080fd5b611b3687828801611aa6565b95989497509550505050565b60008060208385031215611b5557600080fd5b82356001600160401b03811115611b6b57600080fd5b611b7785828601611aa6565b90969095509350505050565b600060208284031215611b9557600080fd5b5035919050565b60008060408385031215611baf57600080fd5b8235611bba81611a86565b946020939093013593505050565b604080825283519082018190526000906020906060840190828701845b82811015611c0a5781516001600160a01b031684529284019290840190600101611be5565b5050506001600160a01b039490941660209390930192909252509092915050565b60006101408284031215611c3e57600080fd5b50919050565b600080600060608486031215611c5957600080fd5b83356001600160401b03811115611c6f57600080fd5b611c7b86828701611c2b565b9660208601359650604090950135949350505050565b60005b83811015611cac578181015183820152602001611c94565b50506000910152565b60008151808452611ccd816020860160208601611c91565b601f01601f19169290920160200192915050565b602081526000610f1a6020830184611cb5565b600080600060408486031215611d0957600080fd5b8335925060208401356001600160401b03811115611d2657600080fd5b611d3286828701611aa6565b9497909650939450505050565b600060208284031215611d5157600080fd5b81356001600160401b03811115611d6757600080fd5b61039b84828501611c2b565b634e487b7160e01b600052604160045260246000fd5b604051601f8201601f191681016001600160401b0381118282101715611db157611db1611d73565b604052919050565b60006001600160401b03821115611dd257611dd2611d73565b50601f01601f191660200190565b60008060408385031215611df357600080fd5b8235611dfe81611a86565b915060208301356001600160401b03811115611e1957600080fd5b8301601f81018513611e2a57600080fd5b8035611e3d611e3882611db9565b611d89565b818152866020838501011115611e5257600080fd5b816020840160208301376000602083830101528093505050509250929050565b60008251611e84818460208701611c91565b9190910192915050565b6000808335601e19843603018112611ea557600080fd5b83016020810192503590506001600160401b03811115611ec457600080fd5b8036038213156104d057600080fd5b81835281816020850137506000828201602090810191909152601f909101601f19169091010190565b60408152611f1d60408201611f1085611a9b565b6001600160a01b03169052565b602083013560608201526000611f366040850185611e8e565b610140806080860152611f4e61018086018385611ed3565b9250611f5d6060880188611e8e565b9250603f19808786030160a0880152611f77858584611ed3565b9450608089013560c088015260a089013560e0880152610100935060c089013584880152610120915060e089013582880152611fb5848a018a611e8e565b9450818887030184890152611fcb868683611ed3565b955050611fda828a018a611e8e565b9450925080878603016101608801525050611ff6838383611ed3565b93505050508260208301529392505050565b60006020828403121561201a57600080fd5b5051919050565b6001600160a01b03841681526040602082018190526000906120469083018486611ed3565b95945050505050565b60006020828403121561206157600080fd5b81516001600160401b0381111561207757600080fd5b8201601f8101841361208857600080fd5b8051612096611e3882611db9565b8181528560208385010111156120ab57600080fd5b612046826020830160208601611c91565b6000602082840312156120ce57600080fd5b81518015158114610f1a57600080fd5b6000808335601e198436030181126120f557600080fd5b8301803591506001600160401b0382111561210f57600080fd5b6020019150368190038213156104d057600080fd5b6000808585111561213457600080fd5b8386111561214157600080fd5b5050820193919092039150565b8183823760009101908152919050565b634e487b7160e01b600052603260045260246000fd5b634e487b7160e01b600052601160045260246000fd5b60006001820161219c5761219c612174565b5060010190565b81810381811115610fb157610fb1612174565b60208152600061039b602083018486611ed3565b60008235605e19833603018112611e8457600080fd5b6000602082840312156121f257600080fd5b8135610f1a81611a86565b82815260406020820152600061039b6040830184611cb5565b6bffffffffffffffffffffffff19813581811691601485101561165f5760149490940360031b84901b1690921692915050565b80356020831015610fb157600019602084900360031b1b169291505056fef88ce1fdb7fb1cbd3282e49729100fa3f2d6ee9f797961fe4fb1871cea89ea04f88ce1fdb7fb1cbd3282e49729100fa3f2d6ee9f797961fe4fb1871cea89ea0336e05829dd1b9a4411d96a3549582172d7f071c1c0db5c573fcf94eb28431608f88ce1fdb7fb1cbd3282e49729100fa3f2d6ee9f797961fe4fb1871cea89ea02a264697066735822122057f6a62b36160148c9b42d1b84fa462a42b0b824f6c6532864384ce190c8ad6264736f6c63430008170033",
    "linkReferences": {}
  },
  "methodIdentifiers": {
    "accountId()": "9cfd7cff",
    "entryPoint()": "b0d691fe",
    "execute(bytes32,bytes)": "e9ae5c53",
    "executeFromExecutor(bytes32,bytes)": "d691c964",
    "executeUserOp((address,uint256,bytes,bytes,bytes32,uint256,uint256,uint256,bytes,bytes))": "f603aba5",
    "getExecutorsPaginated(address,uint256)": "ea5f61d0",
    "getValidatorPaginated(address,uint256)": "85571368",
    "initializeAccount(bytes)": "4b6a1419",
    "installModule(uint256,address,bytes)": "9517e29f",
    "isModuleInstalled(uint256,address,bytes)": "112d3a7d",
    "supportsAccountMode(bytes32)": "4f55535c",
    "supportsModule(uint256)": "f2dc691d",
    "uninstallModule(uint256,address,bytes)": "a71763a8",
    "validateUserOp((address,uint256,bytes,bytes,bytes32,uint256,uint256,uint256,bytes,bytes),bytes32,uint256)": "8803e451"
  },
  "id": 33
}