{
  "abi": [
    {
      "type": "constructor",
      "inputs": [
        {
          "name": "entryPoint",
          "type": "address",
          "internalType": "address"
        },
        {
          "name": "registry",
          "type": "address",
          "internalType": "contract IERC7484"
        }
      ],
      "stateMutability": "nonpayable"
    },
    {
      "type": "receive",
      "stateMutability": "payable"
    },
    {
      "type": "function",
      "name": "REGISTRY",
      "inputs": [],
      "outputs": [
        {
          "name": "",
          "type": "address",
          "internalType": "contract IERC7484"
        }
      ],
      "stateMutability": "view"
    },
    {
      "type": "function",
      "name": "SUPPORTED_ENTRYPOINT",
      "inputs": [],
      "outputs": [
        {
          "name": "",
          "type": "address",
          "internalType": "address"
        }
      ],
      "stateMutability": "view"
    },
    {
      "type": "function",
      "name": "_getOperationData",
      "inputs": [
        {
          "name": "userOpHash",
          "type": "bytes32",
          "internalType": "bytes32"
        },
        {
          "name": "validAfter",
          "type": "uint48",
          "internalType": "uint48"
        },
        {
          "name": "validUntil",
          "type": "uint48",
          "internalType": "uint48"
        }
      ],
      "outputs": [
        {
          "name": "operationData",
          "type": "bytes",
          "internalType": "bytes"
        }
      ],
      "stateMutability": "view"
    },
    {
      "type": "function",
      "name": "_initHash",
      "inputs": [],
      "outputs": [
        {
          "name": "value",
          "type": "bytes32",
          "internalType": "bytes32"
        }
      ],
      "stateMutability": "view"
    },
    {
      "type": "function",
      "name": "getOperationHash",
      "inputs": [
        {
          "name": "userOpHash",
          "type": "bytes32",
          "internalType": "bytes32"
        },
        {
          "name": "validAfter",
          "type": "uint48",
          "internalType": "uint48"
        },
        {
          "name": "validUntil",
          "type": "uint48",
          "internalType": "uint48"
        }
      ],
      "outputs": [
        {
          "name": "operationHash",
          "type": "bytes32",
          "internalType": "bytes32"
        }
      ],
      "stateMutability": "view"
    },
    {
      "type": "function",
      "name": "hash",
      "inputs": [
        {
          "name": "data",
          "type": "tuple",
          "internalType": "struct Safe7579Launchpad.InitData",
          "components": [
            {
              "name": "singleton",
              "type": "address",
              "internalType": "address"
            },
            {
              "name": "owners",
              "type": "address[]",
              "internalType": "address[]"
            },
            {
              "name": "threshold",
              "type": "uint256",
              "internalType": "uint256"
            },
            {
              "name": "setupTo",
              "type": "address",
              "internalType": "address"
            },
            {
              "name": "setupData",
              "type": "bytes",
              "internalType": "bytes"
            },
            {
              "name": "safe7579",
              "type": "address",
              "internalType": "address"
            },
            {
              "name": "validators",
              "type": "tuple[]",
              "internalType": "struct ISafe7579Init.ModuleInit[]",
              "components": [
                {
                  "name": "module",
                  "type": "address",
                  "internalType": "address"
                },
                {
                  "name": "initData",
                  "type": "bytes",
                  "internalType": "bytes"
                }
              ]
            },
            {
              "name": "callData",
              "type": "bytes",
              "internalType": "bytes"
            }
          ]
        }
      ],
      "outputs": [
        {
          "name": "",
          "type": "bytes32",
          "internalType": "bytes32"
        }
      ],
      "stateMutability": "nonpayable"
    },
    {
      "type": "function",
      "name": "initSafe7579",
      "inputs": [
        {
          "name": "safe7579",
          "type": "address",
          "internalType": "address"
        },
        {
          "name": "validators",
          "type": "tuple[]",
          "internalType": "struct ISafe7579Init.ModuleInit[]",
          "components": [
            {
              "name": "module",
              "type": "address",
              "internalType": "address"
            },
            {
              "name": "initData",
              "type": "bytes",
              "internalType": "bytes"
            }
          ]
        },
        {
          "name": "executors",
          "type": "tuple[]",
          "internalType": "struct ISafe7579Init.ModuleInit[]",
          "components": [
            {
              "name": "module",
              "type": "address",
              "internalType": "address"
            },
            {
              "name": "initData",
              "type": "bytes",
              "internalType": "bytes"
            }
          ]
        },
        {
          "name": "fallbacks",
          "type": "tuple[]",
          "internalType": "struct ISafe7579Init.ModuleInit[]",
          "components": [
            {
              "name": "module",
              "type": "address",
              "internalType": "address"
            },
            {
              "name": "initData",
              "type": "bytes",
              "internalType": "bytes"
            }
          ]
        },
        {
          "name": "hook",
          "type": "tuple",
          "internalType": "struct ISafe7579Init.ModuleInit",
          "components": [
            {
              "name": "module",
              "type": "address",
              "internalType": "address"
            },
            {
              "name": "initData",
              "type": "bytes",
              "internalType": "bytes"
            }
          ]
        },
        {
          "name": "attesters",
          "type": "address[]",
          "internalType": "address[]"
        },
        {
          "name": "threshold",
          "type": "uint8",
          "internalType": "uint8"
        }
      ],
      "outputs": [],
      "stateMutability": "nonpayable"
    },
    {
      "type": "function",
      "name": "preValidationSetup",
      "inputs": [
        {
          "name": "initHash",
          "type": "bytes32",
          "internalType": "bytes32"
        },
        {
          "name": "to",
          "type": "address",
          "internalType": "address"
        },
        {
          "name": "preInit",
          "type": "bytes",
          "internalType": "bytes"
        }
      ],
      "outputs": [],
      "stateMutability": "nonpayable"
    },
    {
      "type": "function",
      "name": "predictSafeAddress",
      "inputs": [
        {
          "name": "singleton",
          "type": "address",
          "internalType": "address"
        },
        {
          "name": "safeProxyFactory",
          "type": "address",
          "internalType": "address"
        },
        {
          "name": "creationCode",
          "type": "bytes",
          "internalType": "bytes"
        },
        {
          "name": "salt",
          "type": "bytes32",
          "internalType": "bytes32"
        },
        {
          "name": "factoryInitializer",
          "type": "bytes",
          "internalType": "bytes"
        }
      ],
      "outputs": [
        {
          "name": "safeProxy",
          "type": "address",
          "internalType": "address"
        }
      ],
      "stateMutability": "pure"
    },
    {
      "type": "function",
      "name": "setupSafe",
      "inputs": [
        {
          "name": "initData",
          "type": "tuple",
          "internalType": "struct Safe7579Launchpad.InitData",
          "components": [
            {
              "name": "singleton",
              "type": "address",
              "internalType": "address"
            },
            {
              "name": "owners",
              "type": "address[]",
              "internalType": "address[]"
            },
            {
              "name": "threshold",
              "type": "uint256",
              "internalType": "uint256"
            },
            {
              "name": "setupTo",
              "type": "address",
              "internalType": "address"
            },
            {
              "name": "setupData",
              "type": "bytes",
              "internalType": "bytes"
            },
            {
              "name": "safe7579",
              "type": "address",
              "internalType": "address"
            },
            {
              "name": "validators",
              "type": "tuple[]",
              "internalType": "struct ISafe7579Init.ModuleInit[]",
              "components": [
                {
                  "name": "module",
                  "type": "address",
                  "internalType": "address"
                },
                {
                  "name": "initData",
                  "type": "bytes",
                  "internalType": "bytes"
                }
              ]
            },
            {
              "name": "callData",
              "type": "bytes",
              "internalType": "bytes"
            }
          ]
        }
      ],
      "outputs": [],
      "stateMutability": "nonpayable"
    },
    {
      "type": "function",
      "name": "validateUserOp",
      "inputs": [
        {
          "name": "userOp",
          "type": "tuple",
          "internalType": "struct PackedUserOperation",
          "components": [
            {
              "name": "sender",
              "type": "address",
              "internalType": "address"
            },
            {
              "name": "nonce",
              "type": "uint256",
              "internalType": "uint256"
            },
            {
              "name": "initCode",
              "type": "bytes",
              "internalType": "bytes"
            },
            {
              "name": "callData",
              "type": "bytes",
              "internalType": "bytes"
            },
            {
              "name": "accountGasLimits",
              "type": "bytes32",
              "internalType": "bytes32"
            },
            {
              "name": "preVerificationGas",
              "type": "uint256",
              "internalType": "uint256"
            },
            {
              "name": "gasFees",
              "type": "bytes32",
              "internalType": "bytes32"
            },
            {
              "name": "paymasterAndData",
              "type": "bytes",
              "internalType": "bytes"
            },
            {
              "name": "signature",
              "type": "bytes",
              "internalType": "bytes"
            }
          ]
        },
        {
          "name": "userOpHash",
          "type": "bytes32",
          "internalType": "bytes32"
        },
        {
          "name": "missingAccountFunds",
          "type": "uint256",
          "internalType": "uint256"
        }
      ],
      "outputs": [
        {
          "name": "validationData",
          "type": "uint256",
          "internalType": "uint256"
        }
      ],
      "stateMutability": "nonpayable"
    },
    {
      "type": "event",
      "name": "ModuleInstalled",
      "inputs": [
        {
          "name": "moduleTypeId",
          "type": "uint256",
          "indexed": false,
          "internalType": "uint256"
        },
        {
          "name": "module",
          "type": "address",
          "indexed": false,
          "internalType": "address"
        }
      ],
      "anonymous": false
    }
  ],
  "bytecode": {
    "object": "0x60e060405234801561001057600080fd5b50604051611dbf380380611dbf83398101604081905261002f916100bc565b6001600160a01b0382166100895760405162461bcd60e51b815260206004820152601360248201527f496e76616c696420656e74727920706f696e7400000000000000000000000000604482015260640160405180910390fd5b306080526001600160a01b0391821660a0521660c0526100f6565b6001600160a01b03811681146100b957600080fd5b50565b600080604083850312156100cf57600080fd5b82516100da816100a4565b60208401519092506100eb816100a4565b809150509250929050565b60805160a05160c051611c7161014e6000396000818160be0152610ab801526000818161013c015281816103510152818161045a0152610be40152600081816102bb015281816103d901526108120152611c716000f3fe6080604052600436106100a05760003560e01c8063663c87d811610064578063663c87d8146101ae5780637b69c011146101ce578063928107f9146101ee578063c0d136871461020e578063c67e2d2a1461022e578063d9ed0e8f1461025057600080fd5b806306433b1b146100ac578063137521d8146100fd578063137e051e1461012a57806319822f7c1461015e5780634fff40e11461018c57600080fd5b366100a757005b600080fd5b3480156100b857600080fd5b506100e07f000000000000000000000000000000000000000000000000000000000000000081565b6040516001600160a01b0390911681526020015b60405180910390f35b34801561010957600080fd5b5061011d610118366004610dfb565b610270565b6040516100f49190610e87565b34801561013657600080fd5b506100e07f000000000000000000000000000000000000000000000000000000000000000081565b34801561016a57600080fd5b5061017e610179366004610e9a565b6103d3565b6040519081526020016100f4565b34801561019857600080fd5b506101ac6101a7366004610f04565b61080d565b005b3480156101ba57600080fd5b506100e06101c936600461108a565b61095d565b3480156101da57600080fd5b506101ac6101e936600461118c565b610a3c565b3480156101fa57600080fd5b5061017e6102093660046113fb565b610b8c565b34801561021a57600080fd5b5061017e610229366004610dfb565b610bbc565b34801561023a57600080fd5b50600080516020611c1c8339815191525461017e565b34801561025c57600080fd5b506101ac61026b366004611511565b610bd9565b6060601960f81b600160f81b610301604080517f47e79534a245952e8b16893a336b85a3d9ea9fa8c573f3d803afb92a79469218602082015246918101919091526001600160a01b037f000000000000000000000000000000000000000000000000000000000000000016606082015260009060800160405160208183030381529060405280519060200120905090565b604080517f25838d3914a61e3531f21f12b8cd3110a5f9d478292d07dd197859a5c4eaacb2602082015290810188905265ffffffffffff8088166060830152861660808201526001600160a01b037f00000000000000000000000000000000000000000000000000000000000000001660a082015260c00160408051808303601f190181529082905280516020918201206001600160f81b0319958616918301919091529290931660218401526022830152604282015260620160405160208183030381529060405290509392505050565b600080547f00000000000000000000000000000000000000000000000000000000000000006001600160a01b0390811691161461044f5760405162461bcd60e51b81526020600482015260156024820152744e6f742063616c6c65642066726f6d2070726f787960581b60448201526064015b60405180910390fd5b336001600160a01b037f000000000000000000000000000000000000000000000000000000000000000016146104c15760405162461bcd60e51b8152602060048201526017602482015276155b9cdd5c1c1bdc9d195908195b9d1c9e481c1bda5b9d604a1b6044820152606401610446565b6104ce606085018561154c565b6104dd91600491600091611592565b6104e6916115bc565b6001600160e01b03191663d9ed0e8f60e01b146105455760405162461bcd60e51b815260206004820152601b60248201527f696e76616c69642075736572206f7065726174696f6e206461746100000000006044820152606401610446565b6000610554606086018661154c565b610562916004908290611592565b81019061056f91906113fb565b9050610587600080516020611c1c8339815191525490565b61059082610b8c565b146105d15760405162461bcd60e51b81526020600482015260116024820152700d2dcecc2d8d2c840d2dcd2e840d0c2e6d607b1b6044820152606401610446565b60a081015160c0820151604051636a5e151560e01b81526020880135606081901c9390926001600160a01b0390911691636a5e15159161061391600401611661565b600060405180830381600087803b15801561062d57600080fd5b505af1158015610641573d6000803e3d6000fd5b50505060c08401515160009150815b818110156107675760008660c00151828151811061067057610670611674565b6020026020010151600001519050806001600160a01b0316636d61fe708860c0015184815181106106a3576106a3611674565b6020026020010151602001516040518263ffffffff1660e01b81526004016106cb9190610e87565b600060405180830381600087803b1580156106e557600080fd5b505af11580156106f9573d6000803e3d6000fd5b505060408051600181526001600160a01b03851660208201527fd21d0b289f126c4b473ea641963e766833c2f13866e4ff480abd787c100ef123935001905060405180910390a1856001600160a01b0316816001600160a01b03160361075e57600193505b50600101610650565b508161077b57600195505050505050610806565b604051639700320360e01b81526001600160a01b038516906397003203906107a9908c908c906004016116f8565b6020604051808303816000875af11580156107c8573d6000803e3d6000fd5b505050506040513d601f19601f820116820180604052508101906107ec91906117f7565b95508615610800576000806000808a335af1505b50505050505b9392505050565b6000547f00000000000000000000000000000000000000000000000000000000000000006001600160a01b039081169116146108835760405162461bcd60e51b81526020600482015260156024820152744e6f742063616c6c65642066726f6d2070726f787960581b6044820152606401610446565b61089984600080516020611c1c83398151915255565b6001600160a01b03831615610957576000836001600160a01b031683836040516108c4929190611810565b600060405180830381855af49150503d80600081146108ff576040519150601f19603f3d011682016040523d82523d6000602084013e610904565b606091505b50509050806109555760405162461bcd60e51b815260206004820152601960248201527f5072652d696e697469616c697a6174696f6e206661696c6564000000000000006044820152606401610446565b505b50505050565b6000818051906020012083604051602001610982929190918252602082015260400190565b60405160208183030381529060405280519060200120925060ff60f81b858486896001600160a01b03166040516020016109bd929190611820565b60405160208183030381529060405280519060200120604051602001610a1a94939291906001600160f81b031994909416845260609290921b6bffffffffffffffffffffffff191660018401526015830152603582015260550190565b60408051601f1981840301815291905280516020909101209695505050505050565b60405163610b592560e01b81526001600160a01b038c166004820152309063610b592590602401600060405180830381600087803b158015610a7d57600080fd5b505af1158015610a91573d6000803e3d6000fd5b505050508a6001600160a01b031663a681ba2b8b8b8b8b8b8b8b60405180606001604052807f00000000000000000000000000000000000000000000000000000000000000006001600160a01b031681526020018d8d8080602002602001604051908101604052809392919081815260200183836020028082843760009201919091525050509082525060ff8c166020909101526040516001600160e01b031960e08b901b168152610b4d989796959493929190600401611935565b600060405180830381600087803b158015610b6757600080fd5b505af1158015610b7b573d6000803e3d6000fd5b505050505050505050505050505050565b600081604051602001610b9f91906119d5565b604051602081830303815290604052805190602001209050919050565b6000610bc9848484610270565b8051906020012090509392505050565b336001600160a01b037f00000000000000000000000000000000000000000000000000000000000000001614610c4b5760405162461bcd60e51b8152602060048201526017602482015276155b9cdd5c1c1bdc9d195908195b9d1c9e481c1bda5b9d604a1b6044820152606401610446565b610c586020820182611ab0565b600080546001600160a01b0319166001600160a01b03929092169190911790553063b63e800d610c8b6020840184611acb565b6040850135610ca06080870160608801611ab0565b610cad608088018861154c565b610cbd60c08a0160a08b01611ab0565b60008060006040518b63ffffffff1660e01b8152600401610ce79a99989796959493929190611b14565b600060405180830381600087803b158015610d0157600080fd5b505af1158015610d15573d6000803e3d6000fd5b50506000600080516020611c1c8339815191525550610d319050565b600080610d4460c0840160a08501611ab0565b6001600160a01b0316610d5a60e085018561154c565b30604051602001610d6d93929190611bd9565b60408051601f1981840301815290829052610d8791611bff565b6000604051808303816000865af19150503d8060008114610dc4576040519150601f19603f3d011682016040523d82523d6000602084013e610dc9565b606091505b509150915081610ddb57805160208201fd5b505050565b803565ffffffffffff81168114610df657600080fd5b919050565b600080600060608486031215610e1057600080fd5b83359250610e2060208501610de0565b9150610e2e60408501610de0565b90509250925092565b60005b83811015610e52578181015183820152602001610e3a565b50506000910152565b60008151808452610e73816020860160208601610e37565b601f01601f19169290920160200192915050565b6020815260006108066020830184610e5b565b600080600060608486031215610eaf57600080fd5b83356001600160401b03811115610ec557600080fd5b84016101208187031215610ed857600080fd5b95602085013595506040909401359392505050565b80356001600160a01b0381168114610df657600080fd5b60008060008060608587031215610f1a57600080fd5b84359350610f2a60208601610eed565b925060408501356001600160401b0380821115610f4657600080fd5b818701915087601f830112610f5a57600080fd5b813581811115610f6957600080fd5b886020828501011115610f7b57600080fd5b95989497505060200194505050565b634e487b7160e01b600052604160045260246000fd5b604080519081016001600160401b0381118282101715610fc257610fc2610f8a565b60405290565b60405161010081016001600160401b0381118282101715610fc257610fc2610f8a565b604051601f8201601f191681016001600160401b038111828210171561101357611013610f8a565b604052919050565b600082601f83011261102c57600080fd5b81356001600160401b0381111561104557611045610f8a565b611058601f8201601f1916602001610feb565b81815284602083860101111561106d57600080fd5b816020850160208301376000918101602001919091529392505050565b600080600080600060a086880312156110a257600080fd5b6110ab86610eed565b94506110b960208701610eed565b935060408601356001600160401b03808211156110d557600080fd5b6110e189838a0161101b565b94506060880135935060808801359150808211156110fe57600080fd5b5061110b8882890161101b565b9150509295509295909350565b60008083601f84011261112a57600080fd5b5081356001600160401b0381111561114157600080fd5b6020830191508360208260051b850101111561115c57600080fd5b9250929050565b60006040828403121561117557600080fd5b50919050565b803560ff81168114610df657600080fd5b600080600080600080600080600080600060e08c8e0312156111ad57600080fd5b6111b68c610eed565b9a506001600160401b038060208e013511156111d157600080fd5b6111e18e60208f01358f01611118565b909b50995060408d01358110156111f757600080fd5b6112078e60408f01358f01611118565b909950975060608d013581101561121d57600080fd5b61122d8e60608f01358f01611118565b909750955060808d013581101561124357600080fd5b6112538e60808f01358f01611163565b94508060a08e0135111561126657600080fd5b506112778d60a08e01358e01611118565b909350915061128860c08d0161117b565b90509295989b509295989b9093969950565b60006001600160401b038211156112b3576112b3610f8a565b5060051b60200190565b600082601f8301126112ce57600080fd5b813560206112e36112de8361129a565b610feb565b8083825260208201915060208460051b87010193508684111561130557600080fd5b602086015b848110156113285761131b81610eed565b835291830191830161130a565b509695505050505050565b600082601f83011261134457600080fd5b813560206113546112de8361129a565b82815260059290921b8401810191818101908684111561137357600080fd5b8286015b848110156113285780356001600160401b03808211156113975760008081fd5b908801906040828b03601f19018113156113b15760008081fd5b6113b9610fa0565b6113c4888501610eed565b81529083013590828211156113d95760008081fd5b6113e78c898487010161101b565b818901528652505050918301918301611377565b60006020828403121561140d57600080fd5b81356001600160401b038082111561142457600080fd5b90830190610100828603121561143957600080fd5b611441610fc8565b61144a83610eed565b815260208301358281111561145e57600080fd5b61146a878286016112bd565b6020830152506040830135604082015261148660608401610eed565b606082015260808301358281111561149d57600080fd5b6114a98782860161101b565b6080830152506114bb60a08401610eed565b60a082015260c0830135828111156114d257600080fd5b6114de87828601611333565b60c08301525060e0830135828111156114f657600080fd5b6115028782860161101b565b60e08301525095945050505050565b60006020828403121561152357600080fd5b81356001600160401b0381111561153957600080fd5b8201610100818503121561080657600080fd5b6000808335601e1984360301811261156357600080fd5b8301803591506001600160401b0382111561157d57600080fd5b60200191503681900382131561115c57600080fd5b600080858511156115a257600080fd5b838611156115af57600080fd5b5050820193919092039150565b6001600160e01b031981358181169160048510156115e45780818660040360031b1b83161692505b505092915050565b600082825180855260208086019550808260051b84010181860160005b8481101561165457858303601f19018952815180516001600160a01b03168452840151604085850181905261164081860183610e5b565b9a86019a9450505090830190600101611609565b5090979650505050505050565b60208152600061080660208301846115ec565b634e487b7160e01b600052603260045260246000fd5b6000808335601e198436030181126116a157600080fd5b83016020810192503590506001600160401b038111156116c057600080fd5b80360382131561115c57600080fd5b81835281816020850137506000828201602090810191909152601f909101601f19169091010190565b604081526117196040820161170c85610eed565b6001600160a01b03169052565b602083013560608201526000611732604085018561168a565b61012080608086015261174a610160860183856116cf565b9250611759606088018861168a565b9250603f19808786030160a08801526117738585846116cf565b9450608089013560c088015260a089013560e0880152610100935060c0890135848801526117a460e08a018a61168a565b92508188870301848901526117ba8684836116cf565b9550506117c9848a018a61168a565b94509250808786030161014088015250506117e58383836116cf565b93505050508260208301529392505050565b60006020828403121561180957600080fd5b5051919050565b8183823760009101908152919050565b60008351611832818460208801610e37565b9190910191825250602001919050565b6001600160a01b0361185382610eed565b1682526000611865602083018361168a565b6040602086015261187a6040860182846116cf565b95945050505050565b6000838385526020808601955060208560051b830101846000805b888110156118e257858403601f19018a52823536899003603e190181126118c3578283fd5b6118cf858a8301611842565b9a86019a9450509184019160010161189e565b509198975050505050505050565b60008151808452602080850194506020840160005b8381101561192a5781516001600160a01b031687529582019590820190600101611905565b509495945050505050565b60a08152600061194960a083018a8c611883565b828103602084015261195c81898b611883565b90508281036040840152611971818789611883565b905082810360608401526119858186611842565b9050828103608084015260018060a01b0384511681526020840151606060208301526119b460608301826118f0565b905060ff604086015116604083015280925050509998505050505050505050565b602081526119ef6020820183516001600160a01b03169052565b60006020830151610100806040850152611a0d6101208501836118f0565b9150604085015160608501526060850151611a3360808601826001600160a01b03169052565b506080850151601f19808685030160a0870152611a508483610e5b565b935060a08701519150611a6e60c08701836001600160a01b03169052565b60c08701519150808685030160e0870152611a8984836115ec565b935060e0870151915080868503018387015250611aa68382610e5b565b9695505050505050565b600060208284031215611ac257600080fd5b61080682610eed565b6000808335601e19843603018112611ae257600080fd5b8301803591506001600160401b03821115611afc57600080fd5b6020019150600581901b360382131561115c57600080fd5b61010080825281018a9052600061012082018c825b8d811015611b58576001600160a01b03611b4283610eed565b1683526020928301929190910190600101611b29565b50508a6020840152611b75604084018b6001600160a01b03169052565b8281036060840152611b8881898b6116cf565b915050611ba060808301876001600160a01b03169052565b6001600160a01b03851660a08301528360c0830152611bca60e08301846001600160a01b03169052565b9b9a5050505050505050505050565b8284823760609190911b6bffffffffffffffffffffffff19169101908152601401919050565b60008251611c11818460208701610e37565b919091019291505056fe1d2f0b9dbb6ed3f829c9614e6c5d2ea2285238801394dc57e8500e0e306d8f80a2646970667358221220ac11f3f58b1456597ae56b1c70382c440d5469a6018957dea798f73b48f95eef64736f6c63430008190033",
    "linkReferences": {}
  },
  "methodIdentifiers": {
    "REGISTRY()": "06433b1b",
    "SUPPORTED_ENTRYPOINT()": "137e051e",
    "_getOperationData(bytes32,uint48,uint48)": "137521d8",
    "_initHash()": "c67e2d2a",
    "getOperationHash(bytes32,uint48,uint48)": "c0d13687",
    "hash((address,address[],uint256,address,bytes,address,(address,bytes)[],bytes))": "928107f9",
    "initSafe7579(address,(address,bytes)[],(address,bytes)[],(address,bytes)[],(address,bytes),address[],uint8)": "7b69c011",
    "preValidationSetup(bytes32,address,bytes)": "4fff40e1",
    "predictSafeAddress(address,address,bytes,bytes32,bytes)": "663c87d8",
    "setupSafe((address,address[],uint256,address,bytes,address,(address,bytes)[],bytes))": "d9ed0e8f",
    "validateUserOp((address,uint256,bytes,bytes,bytes32,uint256,bytes32,bytes,bytes),bytes32,uint256)": "19822f7c"
  },
  "id": 113
}